:020000040800F2
:10000000581300200101000867330008D7280008B2
:1000100065330008AD0A0008F13700080000000051
:100020000000000000000000000000000D35000886
:10003000AF0A000800000000693300080F3500080F
:100040001B0100081B0100081B0100081B01000820
:100050001B0100081B0100081B0100081B01000810
:100060001B0100081B010008B10A00081B01000861
:100070001B0100081B0100081B0100081B010008F0
:100080001B0100081B0100081B0100081B010008E0
:10009000A93700081B0100081B0100081B0100080C
:1000A0001B0100081B0100081B0100081B010008C0
:1000B000A93500081B0100081B010008E5280008FD
:1000C000D92800081B0100081B0100081B010008BB
:1000D0001B0100081B0100081B0100081B01000890
:1000E0001B0100081B0100081B010008DFF80CD0F1
:1000F00000F02EFC00480047814E000858130020F5
:100100000648804706480047FEE7FEE7FEE7FEE7B1
:10011000FEE7FEE7FEE7FEE7FEE7FEE761350008E3
:10012000ED000008202A04DB203A21FA02F0002129
:10013000704721FA02F3D040C2F1200291400843F7
:100140001946704740EA01039B0703D009E008C93C
:10015000121F08C0042AFAD203E011F8013B00F88C
:10016000013B521EF9D27047D2B201E000F8012BD8
:10017000491EFBD270470022F6E710B513460A4627
:1001800004461946FFF7F0FF204610BD421C10F848
:10019000011B0029FBD1801A704710B5002200E036
:1001A000521C835C8C5CA34201D1002BF8D1D8B2E5
:1001B000E1B2401A10BD034611F8012B00F8012BE3
:1001C000002AF9D118467047F0B480EA0102D40F32
:1001D0004200B2EB410F02D20246084611464A00E5
:1001E00042D0C30DDDB2C1F3C752AD1A202D35DAAE
:1001F000C1F3160141F4000204B15242C5F12006D8
:1002000002FA06F12A411044B3EBD05F23D0C4B107
:10021000012DA0EBC35009DCF0BC4FF0004202EA14
:10022000C352DBB200F5000000F080B9400000F1DD
:10023000807000EBC350A0F1807040EAD17049009B
:1002400009E0490841EAC071A0EBC35000F5000085
:10025000400800EBC350F0BC00F05FB961420122DE
:1002600002EB4101001BF6E7F0BC704781F0004152
:10027000AAE780F00040A7E780EA010210B502F08B
:100280000043400022D04A001FD0010E01EB126152
:10029000C0F35600C2F3560240F4000042F40002DC
:1002A000A0FB022000047F39140400D0401C50EA57
:1002B000124001D44000491EC2B20C0604EBD0101B
:1002C000401C4008802A02D003E0002010BD20F02E
:1002D0000100002900DA0020184310BD420005D0BB
:1002E000C0F3C7525242914201DC0020704700EB3C
:1002F000C15070472DE9F04D81EA030404F0004B32
:1003000021F0004514464FF0000A23F0004150EA66
:10031000050220D054EA01021DD0C5F30A57024657
:10032000C5F31303C1F31300C1F30A5640F480155B
:1003300043F48013A7EB0608101BD64608F2FD38DD
:1003400073EB050002D308F1010801E092185B414C
:10035000B8F1000F03DA00200146BDE8F08D00205F
:100360004FF48011064684460EE0171B73EB050719
:1003700005D3121B63EB050306434CEA010C490845
:100380004FEA300092185B4150EA0107EDD152EA82
:10039000030012D082EA040083EA0501084305D075
:1003A000101BAB4106D20122002306E000224FF0D1
:1003B000004302E06FF0010253101AEB06004CEB11
:1003C000085110EB0A0041EB0B01BDE8F04D00F0C5
:1003D00019B9C10F80EAE0700844CA0796230021CA
:1003E00000F0A4B80EB540F2334202920022CDE9EB
:1003F0000022134600F015F903B000BD00F00042E2
:1004000020F00040C10DC0F3160040F400007F2929
:1004100001DA00207047962903DCC1F19601C8403B
:1004200001E096398840002AF4D04042704700F03D
:10043000004230F000400AD0C10D01F56071C0F3F8
:10044000160042EA0151C2084007114370470020DC
:100450000146704701F0004330B421F0004150EAFA
:10046000010206D00A0DA2F56072C1F31301002A41
:1004700002DC30BC00207047440F44EAC104C100D4
:10048000E01830BC00EBC25000F047B830B50B4666
:10049000014600202022012409E021FA02F59D42B4
:1004A00005D303FA02F5491B04FA02F52844151E88
:1004B000A2F10102F1DC30BD2DE9F05F054600201C
:1004C00092469B4688460646814640241BE02846C5
:1004D000414647462246FFF725FE53465A46C01A74
:1004E000914110D311461846224600F043FA2D1AC6
:1004F00067EB01084F4622460120002100F03AFA3E
:1005000017EB00094E41201EA4F10104DFDC484630
:1005100031462A464346BDE8F09F0029A8BF7047F0
:10052000401C490008BF20F00100704710B4B0FA29
:1005300080FC00FA0CF050EA010404BF10BC7047C4
:1005400049B1CCF1200421FA04F411FA0CF118BFDE
:10055000012121430843A3EB0C01CB1D4FEA0061AD
:100560004FEA102042BF002010BC704700EBC35080
:1005700010440029A4BF10BC7047401C490008BFAC
:1005800020F0010010BC704730B480EA010202F094
:10059000004530F0004221F0004013D090B1C30D6F
:1005A000D40DC2F31601C0F31600E41A41F40001A1
:1005B00040F400027D34914201D3641C00E0490004
:1005C000002C02DA30BC002070474FF400000023FA
:1005D000914201D3891A034340084FEA4101F7D100
:1005E00051B1914202D14FF0004105E002D24FF0EB
:1005F000010101E06FF0010103EBC450284430BC5D
:10060000FFF78BBF10B5141E73F1000408DA401C0D
:1006100041F1000192185B411A4301D120F0010021
:1006200010BD2DE9F04D92469B4611B1B1FA81F211
:1006300002E0B0FA80F22032904600F09BF90446C6
:100640000F4640EA0A0041EA0B0153465A46084366
:1006500013D0114653EA010019D0C8F140025046A8
:10066000FFF760FD05460E4650465946424600F0EB
:1006700081F9084305D0012004E020463946BDE851
:10068000F08D0020054346EAE0762C4337430A9874
:100690006305E40AA0EB08000022FD0A44EA47547F
:1006A0000A3002D500200146E9E701051019694129
:1006B000DDE9084500196941BDE8F04DA2E72DE9E3
:1006C000FE4F804681EA0300C00F0C46009021F0E7
:1006D000004123F00045B8EB0200A94105D2404695
:1006E000214690461C460B46024623F0004010432C
:1006F00047D0270DC7F30A00C3F30A510290401AEE
:10070000019040286BDAC3F3130040F4801B00987B
:10071000924620B10023D2EB030A63EB0B0B019846
:100720005946C0F14002504600F024F906460D46F5
:1007300050465946019A00F02CF910EB080061412F
:10074000002487EA115284EAE7731A4340D0009AE2
:1007500062B3019A012A4FEA075215DC001B61EBD4
:1007600002014FF0004202EA0752CDE90042001CAC
:1007700041F5801132462B46FFF753FF03B0BDE829
:10078000F08F40462146F9E7001B61EB0201001C97
:1007900041F5801300185B412018A2F5001747EBC4
:1007A000030140EAD570B6196D4111E06D084FEABA
:1007B000360645EAC0754FEA0752001B61EB02019D
:1007C000001C41F5801149084FEA300000195141E1
:1007D00032462B4603B0BDE8F04FFFF713BF009839
:1007E000012240000023D0EB020263EBE07300988B
:1007F00021464FEAE074B8EB000061EB0401E9E741
:1008000083F000435BE781F0004158E72DE9FE4F9C
:1008100081EA030404F0004421F0004100944FF009
:10082000000B23F0004350EA01045ED052EA0304B7
:100830005BD0C3F30A54C1F30A552C44A4F2F33439
:100840000194A0FB0254C1F3130141F48011C3F3DE
:10085000130343F4801301FB024400FB034E840A9C
:10086000970A44EA815447EA8357A4FB0768029534
:100870008D0A05FB07854FEA932C04FB0C542705D2
:10088000029D4FEA065847EA1637B5EB08056EEBAE
:10089000070C870E920E47EA811742EA8312A7FBE4
:1008A0000201B6EB0B0164EB00042B0D43EA0C33A1
:1008B0005E1844EB1C50DA465146E7FB0201C5F3D3
:1008C00013044FEA0B3343EA14534FEA0432019CFA
:1008D00043EA0603A4F10C040294009CCDE900B4A1
:1008E000FFF79FFE03B0BDE8F08F00200146F9E757
:1008F000C1F30A52C1F3130140F2FF3341F48011F6
:100900009A4202DA00200146704740F233439A428D
:10091000A2F2334202DC5242FFF704BC00F02AB8D4
:1009200030B5041E71F1000404DB4FF00044404276
:1009300064EB0101141E73F1000405DB1C464FF04B
:100940000043524263EB0403994208BF904230BD1A
:10095000064C074D06E0E06840F0010394E807000C
:1009600098471034AC42F6D3FFF7C4FB1069000877
:1009700030690008202A04DB203A00FA02F1002046
:1009800070479140C2F1200320FA03F319439040CD
:100990007047202A06DBCB17203A41FA02F043EADF
:1009A000E07306E041FA02F3D040C2F12002914028
:1009B000084319467047F0B4002802DCF0BC002060
:1009C0007047C0F3C751C0F3160040F40000CA07D7
:1009D00001D14000491E3F2202EB61050022114671
:1009E0004FF4000626FA01F31344D418844201D8C8
:1009F000001B1A464000491C1729F3DD51008142B3
:100A000002D24FF0FF3100E0002102EBC550F0BCF4
:100A1000FFF783BD10B50EA002F0ECFE05F0FCF967
:100A2000114C00221149606005F0DEFA010002D08D
:100A30000FA002F0DFFE0021144805F073FB04F064
:100A40006BFD00202070BDE8104005F009BD0000DE
:100A5000424E4F303835205348322044656D6F2860
:100A6000494943292E0D0A0040000020D1490008C1
:100A70004572726F722C2025642C2066726F6D2077
:100A80007368325F6F70656E2E0D0A00CF570008D5
:100A9000054810B5017819B10021017005F0E0FC9E
:100AA000BDE8104005F038BB40000020FEE770476D
:100AB000102000F087BC704790F82020012A07D052
:100AC000022A05D0416A41F4802141620120704729
:100AD000006842690A43426100207047F0B590F80F
:100AE00020500468A468012D05D0022D03D0416A6E
:100AF00041F4802153E014F0406F01D1E5004BD563
:100B0000C4F30164022C03D9416A41F4000146E0B8
:100B10000125A5401D608D684FF4C0739DB1CE685E
:100B200035434E6845EAC605066803EB0417F551E0
:100B30004FF4C275076805EB04150E697E51097DF7
:100B4000012905D009E00E88CD6845EA4655EBE756
:100B500001684E5946F480764E511179D2F805500D
:100B60004FF4C67641EA0525016806EB04168D515F
:100B70001178D2F801204FF4C47541EA02210268CD
:100B800005EB04155151006803EB0411425842F083
:100B9000010242500020F0BD416A41F4001141625F
:100BA0000120F0BD10B590F820300268012B07D06D
:100BB000022B05D0416A41F480214162012010BD21
:100BC000D2F8000240F00100C2F80002087D00F0F7
:100BD0001F0301209840D2F81C328343C2F81C3214
:100BE000CB69B3B9D2F80C328343C2F80C328C898A
:100BF0004B6864F31F434C6902EBC404C4F84032F1
:100C00000C890B6864F31F434C6902EBC404C4F8FD
:100C10004432CB69012B16D1D2F80C320343C2F80F
:100C20000C320C884B6864F31F434C6902EBC4041C
:100C3000C4F840320C89CB6864F31F434C6902EB63
:100C4000C404C4F844328B69002BD2F804320FD0AC
:100C500053EA0003C2F804320B69002BD2F81432B5
:100C600008D00343C2F81432096A012904D008E00D
:100C70008343EFE78343F5E7D2F81C120143C2F840
:100C80001C12D2F8000220F00100C2F8000200207D
:100C900010BD704730B590F82040012C05D0022CD3
:100CA00003D0416A41F480215DE00468002955D0F9
:100CB0002469A40754D04FF4D874056804EB0114D8
:100CC0002D5915F00405956005682D594ED0ED0895
:100CD000556005682C5904F00204D4604FF4DA74AE
:100CE000056804EB01142D5905F00F051561056821
:100CF0002D59C5F30725956105682C59240C5461BD
:100D00004FF4DC72046802EB0112A4581C700468F2
:100D1000A458240A5C700468A458240C9C700468CD
:100D2000A258120EDA704FF4DE72046802EB011260
:100D3000A4581C710468A458240A5C710468A4585F
:100D4000240C9C710468A258120EDA71006881B1FB
:100D5000016941F020010161002030BDE468A8E78D
:100D6000416A41F400114162012030BD6D0D1560F2
:100D7000AFE7C16841F02001C160EDE72DE9F05F08
:100D80000546006800244669D0F804908768D0F8CA
:100D90000CB0D0F810A0D0F81880F10748D0F907AF
:100DA00014D001218160B80703D5284600F009FA64
:100DB0000CE0780702D54FF4006407E0380702D54D
:100DC0004FF4805402E0284600F0FAF9F80516D5F1
:100DD00029684FF480708860B80503D5284600F074
:100DE000F2F90CE0780502D544F4005407E0380528
:100DF00002D544F4804402E0284600F0E3F9F80309
:100E000016D529684FF480308860B80303D528468A
:100E100000F0DBF90CE0780302D544F4004407E06D
:100E2000380302D544F4803402E0284600F0CCF9BF
:100E3000300707D55FEACB6004D52968102044F459
:100E40000074C86070074FF0080707D55FEA0B70A1
:100E500004D52868C760284600F05AF9B00706D5BF
:100E60002868C068800702D0284600F053F9700651
:100E700007D55FEACA6004D52968102044F480646D
:100E80000861B00607D55FEA0A7004D528680761D3
:100E9000284600F065F9F00606D528680069800745
:100EA00002D0284600F05DF9B00308D55FEAC960BA
:100EB00005D5296810204860284600F053F9F00352
:100EC00007D55FEA097004D528684760284600F016
:100ED0007DF9300446D55FEA497040D5F00504D568
:100EE0005FEAC87001D044F00104B00504D55FEAA0
:100EF000887001D544F00204700504D55FEA48709B
:100F000001D544F00404300529D518F0700F26D01F
:100F100008F07000402815D006DC102809D02028E1
:100F20000AD0302816D10AE050280ED0602811D1FE
:100F30000EE044F008040DE044F010040AE044F030
:100F4000200407E044F0400404E044F0800401E0A1
:100F500044F480742868816921F0700181612968F6
:100F600004204860002C05D0686A20436862284647
:100F7000FFF78FFEBDE8F09F70B5040003D094F832
:100F8000200010B104E0012070BD204600F082F87E
:100F90002068016821F00201016000F015FB0546A0
:100FA000052604E000F010FB401B0A2811D8206839
:100FB00040688007F6D42068016841F001010160B3
:100FC00000F002FB05460BE000F0FEFA401B0A2889
:100FD00006D9606A40F40030606284F82060D2E78D
:100FE00020684068C007EFD0207E01282068016893
:100FF0003DD021F080010160607E012820680168F9
:1010000038D021F040010160A07E012820680168ED
:1010100033D021F020010160E07E012820680168C2
:101020002ED041F010010160207F01282068016866
:1010300029D021F008010160607F01282068016843
:1010400024D021F004010160D4E902010843D4E96D
:101050000412114308436168491E08432168C861AE
:1010600000206062012084F82000002070BD41F063
:101070008001C0E741F04001C5E741F02001CAE727
:1010800021F01001CFE741F00801D4E741F004015D
:10109000D9E7000010B586B00021009101910291BE
:1010A00003910068174988422AD11748C16941F065
:1010B0000071C161C16901F000710491816941F061
:1010C000040181618069114C00F0040004904FF428
:1010D000006000906946204600F080F9A01400905E
:1010E00002200190032003906946204600F076F923
:1010F00000220721142000F09DFE142000F08DFE38
:1011000006B010BD0064004000100240000801401D
:10111000704700001CB56B460D4A0021FFF7BAFD71
:10112000002813D10A48006902280FD3BDF8000037
:1011300044BA214607A002F05DFB601E632805D873
:101140004FF47A70B0FBF4F0044908801CBD000035
:1011500050040020485A3A25640D0A00340000204B
:10116000704770477047000070B5044690F8200043
:10117000012804D0606A40F40020606218E0022078
:1011800084F820002068016821F00101016000F06E
:101190001BFA05460EE000BF00F016FA401B0A28B5
:1011A00008D9606A40F400306062052084F82000AD
:1011B000012070BD20684068C007EDD1606270BD3D
:1011C000704770477047704770477047704700001E
:1011D00010B590F821100024022903D00421816366
:1011E00001243DE001680A6822F00E020A600168ED
:1011F0000A6822F001020A601A4A0168914201D18C
:10120000012121E0174A1432914201D110211BE043
:10121000144A2832914201D1891515E0114A3C3215
:10122000914201D189140FE00E4A5032914202D10D
:101230004FF4803108E00B4A6432914202D14FF4FE
:10124000801101E04FF08071064A083A5160012197
:1012500080F82110002180F82010416B01B18847EF
:10126000204610BD0800024090F8210070470000A1
:101270002DE9F0430023374F0F2566E001229A4005
:101280000A4060D023F00304E619D6F808809C07D2
:101290004FEA147C05FA0CF909EA0804DFF8B88073
:1012A000404502D14FF0000816E0DFF8B08040451D
:1012B00002D14FF001080FE0DFF8A480404502D1D1
:1012C0004FF0020808E0DFF89C80404502D14FF063
:1012D000030801E04FF0040808FA0CF8A04515D106
:1012E000D6F808C02CEA090CC6F808C01E4E3468AF
:1012F00094433460341D266896432660241D266876
:1013000096432660241D266896432660FF2A01D84E
:10131000064601E000F104064FEA830401D9A4F176
:101320002004D6F800C005FA04F82CEA080C4FF0A7
:10133000040808FA04F84CEA080CC6F800C0C468AF
:1013400024EA0204C46003F1010331FA03F295D1E7
:10135000BDE8F0830000014000080140000C01409E
:1013600000100140001401400004014010B5124C6F
:10137000607800280BD005F0A5F8E0600020E07050
:101380006178012904D003290CD00120A07010BD80
:10139000216919B1A168491CA16020610220607017
:1013A000034602E004206070A388E188BDE8104095
:1013B000024A034800F08CBB14000020A401002066
:1013C00068000020044910B50A68024202D0086093
:1013D000FFF7CCFF10BD0000140401402DE9F84FC9
:1013E000DFF8B891002409F1040A0AF1040B23463E
:1013F0000F270BF1040EC9E00125A5402A40AA429F
:101400007DD1674ED1F804C0ACEB0608B44532D0AC
:1014100014DCBCF1030F3AD009DCBCF1000F2AD078
:10142000BCF1010F1CD0BCF1020F31D11DE0BCF1A9
:10143000110F17D0BCF1120F2AD119E0B8F5881F8F
:1014400019D006DCB8F5803F15D0B8F5801F1FD144
:1014500011E0B8F5001F0ED0B8F5041F18D10AE04E
:10146000CB6815E0CB681B1D12E0CB6808330FE09A
:10147000CB680C330CE08B682BB1012B4FF00803C9
:1014800003D0456104E0042302E0056100E000238D
:10149000FF2A01D8064601E000F104064FEA840560
:1014A00001D9A5F12005D6F8008007FA05FC28EA45
:1014B0000C0803FA05F548EA0508C6F800804D68EF
:1014C000ED0062D5374DAE6946F00106AE61AD69FB
:1014D00024F0030605F001050095334D06EB050CDD
:1014E000DCF80850A607360F07FA06F825EA0805C3
:1014F000DFF8B880404503D14FF0000817E044E022
:10150000DFF8AC80404502D14FF001080FE0DFF872
:10151000A480404502D14FF0020808E0DFF898802F
:10152000404502D14FF0030801E04FF0040808FAEB
:1015300006F848EA0508CCF808804D68D9F800603C
:10154000ED034D4601D5164300E096432E604D68ED
:10155000DAF80060AD03554601D5164300E0964326
:101560002E604D68DBF80060ED025D4601D5164344
:1015700000E096432E604D68DEF80060AD027546CF
:1015800001D5164300E096432E60641C0D682A4680
:10159000E5407FF431AFBDE8F88F00000004014062
:1015A000000011100010024000000140000801403E
:1015B000000C014000100140001401400AB101611B
:1015C00070470904FBE7000001488068704700008D
:1015D00004000020704770472DE9F0410446006880
:1015E000416946680025CF43F9050BD4F143C9058D
:1015F00008D46FF48071012541612068016841F4CD
:1016000000410160B80508D4F043C00505D4216845
:101610006FF4007045F002054861780527D4F04367
:10162000C00524D494F83E30628D94F83D00216BBF
:10163000202B08D13AB9212810D029280ED02828EB
:1016400001D121290AD021686FF48060486194F8A3
:101650003E0045F00405102804D008E0204601F0C3
:1016600091FC04E02068016841F4007101603805D4
:1016700008D4F043C00505D421686FF4006045F03C
:1016800008054861002D07D0206C284320642046BF
:10169000BDE8F04101F06CB9BDE8F0812DE9F04101
:1016A000026800245168C56A90F83E3090F83D60A9
:1016B000102B1CD0402B1AD0036C002B7ED053690A
:1016C0004FF02805DB439F0779D4CF43BF0576D47D
:1016D000016C01B1946990F83D3000219D430B46A7
:1016E0007FD0C91E516180F83C30BDE8F08194691B
:1016F00053694FF42A07DB435FEAC37C4FF02A4665
:1017000004D0BD42F1D0B542EFD010E0CD43AD05DD
:101710000DD4C16AB94201D1012103E0C16AB142CD
:1017200001D10821C162BDE8F04101F0E3BB1D0712
:1017300016D4CD43AD0513D4416CC9B21161416BD0
:1017400011B9826B002AD0D0896A19B9816B896A74
:101750000029CAD00068416841F400614160C4E7D3
:101760009D0706D4CD43AD0503D4BDE8F04101F09B
:1017700015BBE443526864074FEA025215D4002AAD
:10178000B3DB1A0608D4CA43520505D45A0705D557
:10179000BDE8F04101F080BA5A07A6D4C9438905D3
:1017A000A3D4BDE8F04101F035BA002A9DDB5A060A
:1017B0000CD4CA43520509D45A0702E00FE023E0D3
:1017C0000FE005D5BDE8F04101F0DBB95A078CD434
:1017D000C943890589D4BDE8F04101F069B994692C
:1017E0006DE7556825F480655560E243540700D5E0
:1017F0000121120601D5828900E0028B80F83C307D
:1018000092B2FFF7E8FE70E7DC0606D4CC43A405ED
:1018100003D4BDE8F04101F0F7BB212E27D0292EDB
:1018200025D05C0655D4CC43640552D45B0752D511
:1018300090F83D10438D002B91D01269436A1A70C5
:10184000426A521C4262428D521E4285428D002ADB
:1018500085D12A29D7D101684A6822F480624A607A
:101860002221016380F83D5000F052FA3DE71C064A
:1018700023D4CC43640520D45B0720D590F83D10D9
:10188000438D002BBFD0436A1B781361426A521C00
:101890004262428D521E4285428D002AB3D12929CF
:1018A000B1D101684A6822F480624A602121016353
:1018B00080F83D5000F02DFA17E75B07A3D4C94329
:1018C0008905A0D4418D00299DD0416A0978116114
:1018D0000AE05B0797D4C943890594D4418D002958
:1018E00091D01169426A1170416A491C4162418D6F
:1018F000491E4185F9E6704770B504001BD094F885
:101900003D00002520B984F83C50204600F0C2F983
:10191000242084F83D002068016821F00101016065
:1019200000F070FB4D4A6168914201D84C4900E0DB
:101930004C49884201D2012070BD4B492368B0FB5D
:10194000F1F15E6826F03F060E435E6063689342E5
:1019500006D94FF4967359434FF47A73B1FBF3F100
:101960002368491C1E6A26F03F06314319626168EC
:10197000914210D84900401EB0FBF1F2521CC2F354
:101980000B02042A01D2042022E0B0FBF1F0401C3B
:10199000C0F30B001CE0A368F3B301EBC10202EB40
:1019A0000116421EB2FBF6F2521C42F480421205AE
:1019B00049D093B301EBC10202EB0111401EB0FB11
:1019C000F1F0401CC0F30B0040F4804040F40040B4
:1019D0002168CA694CF6FF739A431043C861D4E981
:1019E0000701084321680A6822F0C002104308601A
:1019F000D4E9030101432068826848F2FF339A4327
:101A000011438160D4E9050108432168CA6822F0C6
:101A1000FF021043C86001E00EE016E02068016894
:101A200041F0010101602564202084F83D00256318
:101A300084F83E50002070BD01EB4106421EB2FB0F
:101A4000F6F2521CB3E70120C2E701EB4101401E50
:101A5000B0FBF1F0401CC0F30B00B7E7A08601001B
:101A600080841E0000093D0040420F0070470000C6
:101A70000F484278022A09D0014601238988042AA6
:101A800001D0062A01D101614370704709490A78E3
:101A9000497802EB0121C1F30E014FF4C07291426B
:101AA00001D9828000E081800321417070470000ED
:101AB00014000020A40100200448012241780529D7
:101AC00001D0072900D142707047000014000020A7
:101AD00078B50024009490F83D50202D55D12C4D20
:101AE00046F2A8162D68B5FBF6F505EBC50606EB24
:101AF000051500956D1E009506D00568AD69ED438E
:101B0000AD070DD4009DF5E740F8304F202141731B
:101B10008473016941F0200101610473012078BDE3
:101B200090F83C50012D30D0012580F83C500568DC
:101B30002E68F60703D12E6846F001062E60056870
:101B40002E6826F400662E60222580F83D50102570
:101B500080F83E50046442624385428D02850D4AFE
:101B6000C262416401680A6842F480620A600168E6
:101B70000A6842F480720A6080F83C40006841685C
:101B800041F4E0614160002078BD022078BD000092
:101B9000100000200000FFFF78B50024009490F8AA
:101BA0003D50202D50D1294D46F2A8162D68B5FB89
:101BB000F6F505EBC50606EB051500956D1E0095BF
:101BC00006D00568AD69ED43AD070DD4009DF5E77E
:101BD00040F8304F202141738473016941F02001A6
:101BE00001610473012078BD90F83C50012D2BD089
:101BF000012580F83C5005682E68F60703D12E6851
:101C000046F001062E6005682E6826F400662E60F8
:101C1000212580F83D50102580F83E500464426232
:101C20004385428D02850A4AC262416401680A689E
:101C300042F480720A6080F83C400068416841F4D8
:101C4000E0614160002078BD022078BD10000020D6
:101C50000000FFFF7047704710B500680A498842CE
:101C600010D10A48C16921F40011C161C02108489E
:101C7000FFF7FEFA1F2000F0BFF8BDE8104020205B
:101C800000F0BAB810BD000000540040001002403F
:101C9000000C014000B585B0002100910191029136
:101CA00003910068174988422AD11748816941F099
:101CB00008018161816901F008010491C16941F461
:101CC0000011C161C069694600F400100490C02091
:101CD000009012200190032003900C48FFF77EFB38
:101CE000002205211F2000F0A5F81F2000F095F824
:101CF00000220521202000F09DF8202000F08DF822
:101D000005B000BD0054004000100240000C01402E
:101D100070477047024881680278114481607047BB
:101D200004000020074810B5016841F0100101606F
:101D3000032000F09FF8002000F006F800F03EF8C5
:101D4000002010BD0020024000B5014687B00022EF
:101D50001C2000F06FF81C2000F05FF81448C169E7
:101D600041F00101C161C06905A900F001000690C0
:101D7000684600F027F900F045F90E494000B0FB35
:101D8000F1F10D484FF08042491E0260416040F27F
:101D9000E7320021C0E90321816000F03CFB10B173
:101DA000012007B000BD044800F084FBF9E7000003
:101DB0000010024040420F003C0100200C4808B5D2
:101DC000816941F001018161816901F001010091A6
:101DD000C16941F08051C161C06900F0805000903C
:101DE0000448416821F0E06141F00071416008BDA4
:101DF000001002400000014000280DDB00F01F022F
:101E0000012191404009800000F1E020C0F88011DC
:101E1000BFF34F8FBFF36F8F7047002809DB00F0CF
:101E20001F02012191404009800000F1E020C0F82C
:101E300000117047F0B40E4B1B680C46C3F302232D
:101E4000C3F10705042D00D90425191D072901D266
:101E5000002300E0DB1E012606FA05F1491E2140A1
:101E600099409E40761E16403143F0BC01F0E5BC1F
:101E70000CED00E0064900F0070208684FF6FF038A
:101E8000184040EA0220034A1043086070470000EF
:101E90000CED00E00000FA052DE9F0470F460500C3
:101EA00061D0434E306800F00700B84209D2306874
:101EB00020F0070038433060306800F00700B84277
:101EC00051D128683B4C810712D5400703D5606883
:101ED00040F4E06060602878000703D5606840F453
:101EE000605060606068A96820F0F000084360609E
:101EF0002878C00728D06868012810D021680228F7
:101F000010D0890700292EDA616821F0030101430E
:101F10006160FFF759FB804641F288390DE0216886
:101F20008903EFE78901EDE7FFF74EFBA0EB08011E
:101F3000494502D90320BDE8F0876068696800F070
:101F40000C00B0EB810FEFD1306800F00700B84211
:101F50000BD9306820F0070038433060306800F05B
:101F60000700B84201D00120E5E72878400705D5F1
:101F70006068E96820F4E060084360602878000742
:101F800006D56068296920F4605040EAC1006060AD
:101F900000F058F86168084AC1F30311515CC84069
:101FA0000649086006480068FFF7CEFE0020C2E739
:101FB00000200240001002400E67000810000020C0
:101FC000080000200F2202600C4A536803F003034C
:101FD0004360536803F0F0038360536803F4E063E5
:101FE000C36052684FF4E06303EAD202026104481E
:101FF000006800F007000860704700000010024011
:10200000002002400448054900684968044AC1F3B9
:102010000221515CC84070471000002000100240AF
:102020001E6700080448054900684968044AC1F36E
:10203000C221515CC84070471000002000100240CF
:102040001E67000812A185B00FC98DE80F0014A00B
:10205000144A006804905168134801F00C03042BE3
:1020600010D0082B0ED1C1F38343C9031DF8030020
:102070000AD5516804AAC1F34041515C0A4A504351
:10208000B0FBF1F005B0704708494843FAE700009B
:1020900002030405060708090A0B0C0D0E0F1010A9
:1020A000010200000010024000127A0000093D0009
:1020B0002DE9F84F040070D02078C04DC00749D0FA
:1020C0006868C0F38100012807D06868C0F3810008
:1020D000022809D16868C00306D52868800339D56D
:1020E00060680028E7D035E06068B0F5803F0BD02D
:1020F00010B1B0F5A02F11D0286820F480302860EE
:10210000286820F4802002E0286840F480302860AD
:10211000606890B1FFF758FA06460AE0286840F474
:1021200080202860F0E700BFFFF74EFA801B64288C
:1021300073D828688003F7D50CE0FFF745FA064608
:1021400005E000BFFFF740FA801B6428F0D828683C
:102150008003F7D420789A4E80074FF001094FF0A2
:10216000000839D5686810F00C0F07D06868C0F314
:102170008100022809D16868C00306D42868800756
:1021800014D52069012808D110E02069B0B1C6F843
:102190000090FFF719FA074605E00AE1FFF714FA85
:1021A000C01B0228C4D828688007F7D52868616951
:1021B00020F0F80040EAC10028600DE0C6F8008079
:1021C000FFF702FA074604E0FFF7FEF9C01B0228FA
:1021D00023D828688007F7D4207800072CD57948C1
:1021E000A169D9B1C0F80090FFF7EEF9074604E005
:1021F000FFF7EAF9C01B02280FD8686A8007F7D5F5
:1022000071484FF4FA510068B0FBF1F0009000BF44
:102210000098411E0091FAD20EE080E0C0F80080E4
:10222000FFF7D2F9074604E0FFF7CEF9C01B0228FA
:1022300075D8686A8007F7D42078400760D5E869C8
:102240000027C00008D4E86940F08050E861E869E0
:10225000012700F0805000905C480168C90513D444
:102260000168834641F480710160FFF7ADF9824651
:1022700006E000BFFFF7A8F9A0EB0A0064284ED8DB
:10228000DBF80000C005F5D5E06801280AD008B1E8
:10229000052813D0286A20F001002862286A20F05F
:1022A000040002E0286A40F001002862E06841F280
:1022B000883B98B1FFF788F982460BE0286A40F026
:1022C00004002862EEE700BFFFF77EF9A0EB0A01E9
:1022D00059455AD8286A8007F6D50CE0FFF774F9FB
:1022E000824605E0FFF770F9A0EB0A0159454CD88A
:1022F000286A8007F6D41FB1E86920F08050E861B1
:10230000E06988B36968C1F38101022944D00228D9
:10231000C6F8608004D0FFF757F9044638E034E08F
:10232000FFF752F9074604E0FFF74EF9C01B0228F9
:102330002BD828688001F7D4206AB0F5803F05D1FA
:102340006868A16820F4003008436860D4E9080197
:102350000843696821F4741108436860C6F8609006
:10236000FFF732F9044606E025E000BFFFF72CF93D
:10237000001B022809D828688001F7D51BE000BFA0
:10238000FFF722F9001B022802D90320BDE8F88FCD
:1023900028688001F4D40EE00128F7D06868226A2A
:1023A00000F48031914204D1616A00F470108842D7
:1023B00001D00120EAE70020E8E700000010024019
:1023C00000004242800442421000002000700040A1
:1023D0007047704770B590F83C20012A19D001244D
:1023E00000F83C4F0222427050F83C3C5A689D680D
:1023F00022F070060A684968324325F080052943B7
:102400005A6050F83C2C91604470002101700846DD
:1024100070BD022070BD10B5040003D094F83D00DB
:1024200010B107E0012010BD002084F83C002046D8
:1024300000F01AF8022084F83D00211D206801F008
:10244000B9F8012084F83D00002010BD006804495F
:10245000884204D10348816921F400618161704799
:10246000002C01400010024008B50068064988426F
:1024700008D10648816941F400618161806900F4F6
:102480000060009008BD0000002C014000100240D8
:10249000022180F83D1001688A6802F00702062ACE
:1024A00003D00A6842F001020A60012180F83D1061
:1024B000002070470168CA6842F00102CA600068E3
:1024C000816801F00701062903D0016841F001018C
:1024D00001600020704770B5044690F83C00012868
:1024E00017D0012584F83C50022084F83D00206874
:1024F000826822F0770222F47F42826008685028C6
:1025000030D00DDC20284DD005DC98B310283BD10D
:1025100048E0022070BD302844D0402834D139E052
:10252000602828D0702806D0B0F5805F2CD0B0F598
:10253000005F29D10AE0CB68D1E90121206801F0D0
:102540006FF82068816841F0770109E0CB68D1E934
:102550000121206801F064F82068816841F480411D
:10256000816011E0CA684968206801F06BF8502169
:10257000206807E016E0CA684968206801F073F82F
:102580006021206801F056F884F83D50002084F85E
:102590003C0070BDCA684968206801F053F84021CA
:1025A0002068EFE7226801461046EBE7704770B5F8
:1025B0000446006801694FF00005C943890715D436
:1025C000C168C943890711D4E91E01610120207740
:1025D000206880698007204602D0FFF7E7FF04E00B
:1025E00000F098F8204600F096F8257720680169F9
:1025F000C943490717D4C168C943490713D46FF0C9
:1026000004010161022020772068806910F4407F76
:10261000204602D0FFF7CAFF04E000F07BF8204616
:1026200000F079F8257720680169C943090716D4B5
:10263000C168C943090712D46FF008010161042081
:1026400020772068C0698007204602D0FFF7AEFFE0
:1026500004E000F05FF8204600F05DF82577206880
:102660000169C943C90617D4C168C943C90613D44F
:102670006FF010010161082020772068C06910F414
:10268000407F204602D0FFF791FF04E000F042F8BF
:10269000204600F040F8257720680169C943C90742
:1026A00008D1C168C943C90704D1891E0161204608
:1026B00000F032F820680169C943090609D4C168ED
:1026C000C943090605D46FF0800101612046FFF778
:1026D0007FFE20680169C943490609D4C168C9431E
:1026E000490605D46FF040010161204600F02CF846
:1026F00020680169C94389060BD4C168C9438906AA
:1027000007D46FF0200101612046BDE87040FFF75B
:1027100060BE70BD704770470068B0F1804F0ED149
:102720000748084A4188491C89B241801288914271
:1027300003D10021418001210170FFF7EBBA7047FE
:102740000000002034000020704770B5040004D061
:1027500094F83900002510B106E0012070BD84F81E
:102760003850204600F022F8242084F839002068F0
:10277000C16821F40051C160204600F087FF206845
:10278000016921F4904101612068416921F02A0129
:1027900041612068C16841F40051C160E5632020B7
:1027A00084F8390084F83A00002070BD30B585B057
:1027B0000024009401940294039400681449884210
:1027C00024D11448816941F480418161816901F417
:1027D00080410491816941F00401816180690E4D5D
:1027E00000F0040004904FF400700090022001906B
:1027F0000320039069462846FEF7F0FD2815CDE931
:102800000004694628460294FEF7E8FD05B030BD95
:102810000038014000100240000801402DE9F84353
:10282000044690F839001F4616460D46202850D120
:10283000A5B19EB194F8380001284AD0012084F84F
:1028400038004FF00008C4F83C80212084F839009B
:10285000FEF7BAFEA6848146E68426E00120BDE8A4
:10286000F883E08C401EE084A0684B46B0F5805FA2
:102870004FF000024FF080012046009703D000F097
:1028800061FFE8B90DE000F05DFFC8B92888216854
:10289000C0F308004860206908B16D1C05E0AD1C5C
:1028A00003E0216815F8010B4860E08C0028D8D1BE
:1028B0004B46002240212046009700F043FF08B11C
:1028C0000320CCE7202084F8390084F838800020E9
:1028D000C5E70220C3E7FEE70148FEF77DBE000022
:1028E000680000200148FEF7D9BE00006800002003
:1028F00010B5406A90F83D30426B00219162826BC6
:1029000091620268146824F4806414604185426B0B
:102910005163826B51630268146824F001041460EF
:1029200090F83D202024602A0BD0282232EA0303AD
:102930000FD080F83D4080F83E1000BFFEF7DBFF6F
:1029400010BD80F83D4080F83E100164FEF742FE65
:1029500010BD03681C6844F001041C6003681C6817
:1029600044F480641C60016380F83D20E6E70000C9
:1029700070B5044690F83D0094F83E10102906D139
:10298000222804D121680A6822F400620A60282102
:1029900031EA00024FF000054FF0200626D02168F2
:1029A0004968090503D4602801D084F83D60256397
:1029B00084F83E5020684168090537D5416821F404
:1029C00000614160606B384990F82120012A11D0E4
:1029D0004163606BFEF7FCFB38B32068016821F0AF
:1029E0000101016084F83D60606B1CE0256384F8A0
:1029F0003D10DFE7A06B4163A06BFEF7E9FBA0B1E0
:102A000020684169C943490605D40069616A0870B4
:102A1000606A401C60622068016821F00101016069
:102A200084F83D60A06B416B884710E094F83D103E
:102A3000602923D04169C943490605D40069616A08
:102A40000870606A401C60622046FEF754FF94F8EC
:102A50003D00216C490710D528280ED12068416817
:102A600021F4E06141601148E062256384F83D6033
:102A700084F83E502046FEF7F9FF70BD84F83D60B3
:102A800025644169C943490605D40069616A087033
:102A9000606A401C60622068016821F001010160E9
:102AA0002046FEF797FDD2E7F12800080000FFFF5F
:102AB00010B5C26A438D0168042B06D0438D032BE9
:102AC00008D0438D022B1DD012E04A6822F48062A8
:102AD0004A600CE04B6823F480634B60042A06D004
:102AE000022A04D001680A6822F480620A60016840
:102AF0000969426A1170416A491C4162418D491E4F
:102B0000418510BD012A30D0102A2ED0042A30D0A1
:102B1000022A2ED00A6842F400720A60016809692C
:102B2000426A1170416A491C4162428D521E4285BF
:102B3000026812690A70416A491C4162418D491E4E
:102B4000418501684A6822F440724A60202180F879
:102B50003D1090F83E200021402A80F83E100CD015
:102B600012210163FEF784FF10BD0A6822F480621F
:102B7000D3E70A6842F48062CFE70163FFF76AF89F
:102B800010BD10B590F83D10222914D1418D0329B4
:102B900012D901680969426A1170416A491C41628F
:102BA000418D491E4185418D032904D1006841684A
:102BB00021F48061416010BDC26A022AFBD0012964
:102BC00001D00029F7D101680A6822F480620A6006
:102BD00001684A6822F4E0624A6001680969426A51
:102BE0001170416A491C4162418D491E4185202175
:102BF00080F83D1090F83E200021402A80F83E10D9
:102C000004D012210163FEF733FF10BD0163FFF70B
:102C100021F810BD10B5C26A90F83D1021290BD1E2
:102C2000418D51B1416A026809781161416A491CBC
:102C30004162418D491E418510BD20230021082A93
:102C400013D0202A11D012F5803F0ED002685468AC
:102C500024F4E06454601122026380F83E1080F88E
:102C60003D3000BFFEF728FF10BD0268546824F411
:102C7000E06454600268146844F4007414600163F2
:102C800080F83D3090F83E2080F83E10402AE9D18F
:102C9000FEF7E1FF10BD000010B590F83D1090F870
:102CA0003E30C26A048D64B1212903D0402B21D16A
:102CB00022291FD1418DA1B390F83E10402937D071
:102CC00046E02129F2D120230021082A13D0202A0E
:102CD00011D012F5803F0ED00268546824F4E064ED
:102CE00054601122026380F83E1080F83D3000BF2E
:102CF000FEF7E2FE10BD0268546824F4E0645460FC
:102D00000268146844F400741460016380F83D3074
:102D100090F83E2080F83E10402AE9D1FEF79BFF54
:102D200010BDFFE70068416821F480614160F7E76A
:102D3000016DC1B1016D012922D0016D0229EFD1D0
:102D400090F83D10222923D090F83D102129E7D199
:102D5000416A026809781161416A491C4162418DEA
:102D6000491E4185DCE7C16C0129816C02D0C1F3A9
:102D7000072107E00268C9B21161016D891C05E0F5
:102D8000816CC9B202681161016D491C0165C7E718
:102D90000068016841F480710160C1E778B590F87E
:102DA0003E50C26A046B90F83D6000230168222EF9
:102DB00073D1066D0EB9402D6FD0056D1DB9056933
:102DC000B5F5404F1BD0458D95B3468D484D012E2E
:102DD00020D0448D022C4DD00C6844F480640C60EB
:102DE00001684C68240579D5AA4273D0012A71D0B4
:102DF000082A6FD0102A6DD0202A6BD06EE04A6965
:102E00008A6900920A6842F480720A60016D491C66
:102E1000016578BDAA4214D10A6822F480620A6072
:102E200001684A68120504D50A6822F4806217E036
:102E3000FFE74A698A6900920A6842F400720A60F0
:102E400050E0082A10D0202A0ED0122C0AD0042AD2
:102E500003D0022A01D0102AE6D10A6842F4806227
:102E60000A603BE0012ADFD00A6822F480620A602F
:102E70000168DEE7042A11D0022A0FD0102A0DD0F3
:102E80000C6844F400640C6001684C698C6900941F
:102E90000C6824F480640C6008E025E00C6844F4BD
:102EA00080640C6001684C698969009101684C6814
:102EB000240517D5AA4207D0012A05D0082A03D035
:102EC000102A01D0202A0DD14A6842F480524A606B
:102ED00008E0FFE74A6842F480524A6001684A69A4
:102EE00089690091036578BD48698869009078BD5B
:102EF0000000FFFF90F83E10402910D00169B1F5A5
:102F0000804F19D0016DB1B3016D012910D1416C11
:102F10005FF0F10201F4407142EAD11106E0016D67
:102F20000029416C05D0C9B241F00101006801617E
:102F3000704701F0FE01F9E790F83D102129416C3E
:102F400007D0C9B241F0010102681161416B31B98A
:102F500002E001F0FE01F7E7826B002AE8D0896AFF
:102F600019B9816B896A0029E2D00068416841F48F
:102F7000006141607047FFE7416CF02201F440714D
:102F8000CAE700002DE9F04190F83D40C26A0023F5
:102F900020261C4F01686FF48065082A01D0202A82
:102FA00001D1282C04D0212C16D04D61BDE8F08130
:102FB000C7624A6822F4E0624A6001684D610168B4
:102FC0000A6822F480620A60036380F83D6080F83A
:102FD0003E30FEF74BFDE9E7C7622122026380F82D
:102FE0003D6080F83E304A6822F4E0624A60016841
:102FF0004D6101680A6822F480620A60FEF789FE6A
:10300000D4E700000000FFFFF8B590F83D600446EB
:103010000068416821F4E061416020680025416951
:103020000091016841F0010101602068016821F40C
:103030008061016020684168090520D5474F222E34
:1030400048D02A2E46D0616B096849686185618D38
:1030500019B1216C41F004012164416821F400613F
:103060004160606BFEF700F9012808D0606B476390
:10307000606BFEF7ADF810B1606B416B8847608DF7
:1030800008B320684169C943490708D40069616AE7
:103090000870606A401C6062608D401E6085206818
:1030A0004169C943490608D40069616A0870606AC9
:1030B000401C6062608D401E6085608D18B1206C80
:1030C00040F004002064206C00B32046BDE8F840C6
:1030D000FFF74EBCA16B096849686185618D19B124
:1030E000216C41F004012164416821F400614160D8
:1030F000A06BFEF7B9F80128C1D0A06B4763A06BA5
:10310000FEF766F80028BAD0A06BB6E72A2E06D1E3
:103110002563282084F83D002046FEF7F9FD94F849
:103120003D10202028290DD0216B222901D0222EEC
:1031300007D1256384F83D0084F83E502046FEF711
:10314000E7FDF8BD0649E162256384F83D0084F897
:103150003E502046FEF78AFCF8BD0000F12800082A
:103160000000FFFF0F4810B50D49016003214160C9
:1031700000214FF480228160C0E903124FF4A002C5
:103180004261017641768176C17601774177FDF71C
:10319000F3FE002803D0BDE81040FDF78CBC10BD45
:1031A000006400407C0100202DE9F04186B000243D
:1031B0002F480094019402940394816941F0200106
:1031C0008161816901F020010491816941F004016C
:1031D0008161816901F004010491816941F0080174
:1031E00081618069012200F00800224FD50304901C
:1031F00029463846FEF7E2F9DFF87C8001222021DB
:103200004046FEF7DBF9002269104046FEF7D6F98A
:10321000A810CDE90004694640460294FEF7DEF8A6
:103220000095022601250396CDE9015469463846EA
:10323000FEF7D4F8102000901048CDE9010569464A
:103240004046FEF7CBF844F22000CDE90005CDE979
:10325000024669464046FEF7C1F8002205210A20D1
:10326000FEF7E8FD0A20FEF7D8FD06B0BDE8F081C4
:103270000010024000080140000C01400000211035
:103280000D4810B50B4901600C49416000214FF415
:1032900080428160C0E9031241618161C1610162C4
:1032A000FEF72AFB002803D0BDE81040FDF703BC61
:1032B00010BD00000054004068000020801A060085
:1032C00010B586B000241848009401940294039429
:1032D00004941449059401604721C0E901144FF694
:1032E000FF71C0E9031444618461FFF794F808B1E9
:1032F000FDF7E1FB4FF48050009069460A48FFF764
:10330000EAF808B1FDF7D7FB049404A90648059430
:10331000FFF760F808B1FDF7CEFB0348FFF7B8F8F8
:1033200006B010BD002C0140BC0000200C4810B5B8
:103330000A4901604FF4E1314160002181600C22B3
:10334000C160C0E904128161C161FFF7FEF9002884
:1033500003D0BDE81040FDF7AEBB10BD0038014002
:10336000FC000020FEE77047704700002DE9FC5F7D
:103370000446C0680146FCF77FFF0746A068014687
:10338000FCF77AFF064660680146FCF775FF0546C4
:1033900020680146FCF770FF2946FCF715FF31460F
:1033A000FCF712FF3946FCF70FFF01F04FFD054611
:1033B00029462068FCF760FF019029466068FCF709
:1033C0005BFF00902946A068FCF756FF834629461C
:1033D000E068FCF751FF82460146FCF74DFF81464D
:1033E00059464E460846FCF747FF8046009944463A
:1033F0000846FCF741FF019905460846FCF73CFFEB
:1034000007462946FCF7E0FE2146FCF72FFF314630
:10341000FCF72CFF044651460198FCF72DFF0646A9
:1034200059460098FCF728FF3146FCF7CDFE0121F4
:10343000FCF754FF214600F053FF2E4C59466060C4
:103440000198FCF719FF064651460098FCF714FF57
:103450003146FCF70BFF0121FCF740FF00F0AEFE08
:1034600080F000402060464629463846FCF7FEFEC4
:103470003146FCF7FBFE4946FCF7A6FE05465146E1
:103480005846FCF7F9FE0646DDE90010FCF7F4FEAD
:103490003146FCF799FE0121FCF720FF294600F098
:1034A0001FFF154F064639466068FCF7E5FE0546E6
:1034B000606039462068FCF7DFFE20603946304600
:1034C000FCF7DAFE0D4E0146A060B04203D20C4874
:1034D000FCF7CCFE01E081F00040A060B542294637
:1034E00001D2084800E00848FCF7C0FE6060BDE873
:1034F000FC9F000028000020E12E65420000808033
:103500000000B44300003443000034C370477047E8
:1035100030B58FB028216846FCF72DFE14210AA88B
:10352000FCF729FE01210804CDE9001000240294D3
:1035300002250491CDE907504FF4E0100990684648
:10354000FEF7B6FD0F20CDE90A056802CDE90C4073
:1035500002210AA80E94FEF79FFC0FB030BD0000B8
:103560000D48016841F00101016041680B4A1140BA
:10357000416001680A4A11400160016821F480211C
:103580000160416821F4FE0141604FF41F01816038
:103590000449C00308607047001002400000FFF8B3
:1035A000FFFFF6FE08ED00E00148FFF700B800005D
:1035B0003C010020F0B50268164B174C174D4FF038
:1035C0008047984205D0B84203D0A04201D0A8421B
:1035D00003D122F070064A683243984205D0B842BF
:1035E00003D0A04201D0A84203D122F44074CA689B
:1035F00022434C6922F08002224302608A68C26240
:103600000A688262984201D109690163012141611E
:10361000F0BD0000002C0140000400400008004004
:1036200010B5846842EA032224F47F440A4322430B
:10363000826010BD826822F070020A4342F00701E6
:103640008160704710B5036A046A24F001040462C3
:10365000846924F0F00444EA021423F00A020A43C5
:103660008461026210BD10B5036A23F01003036287
:103670008369046A23F4704343EA023224F0A0030E
:1036800043EA01118261016210BD00002DE9F041A1
:10369000044600680169E26821F440511143016168
:1036A0002169A0680843616908432168CA6841F23A
:1036B0000C639A430243CA6020684169A26921F4FD
:1036C0004071114341611E492068642532268842B9
:1036D00002D1FEF7A7FC01E0FEF794FC00EBC0016D
:1036E00001EB001160686FF018078000B1FBF0F289
:1036F000B2FBF5F2B1FBF0F37A4303EB8202B1FBCC
:10370000F0F306EB0212B2FBF5F2B3FBF5F302F0B5
:10371000F00202EB0312B1FBF0F3B1FBF0F0B0FBEF
:10372000F5F0784303EB800006EB0010B0FBF5F0FA
:10373000216800F00F0010448860BDE8F0810000AF
:10374000003801402DE9F041984617460E460446E0
:10375000069D1DE0681C1BD02DB1FDF735FFA0EBC9
:103760000800A84214D92068C16821F4D071C16052
:103770002068416921F001014161202084F839006D
:1037800084F83A00002084F838000320BDE8F08176
:103790002068006836EA000004D00020B842D9D082
:1037A0000020F3E70120F9E70148FDF7E7BA000040
:1037B0007C0100200B4602460149024802F07ABF14
:1037C000380400207C0100200EB500200821009064
:1037D0000346CDE90101044804498268A1F134009F
:1037E00002F00AFF0EBD0000340000206C0400202F
:1037F000FEE700000FB4054B10B503A9044A029878
:1038000000F000F910BC5DF814FB0000814A0008CC
:10381000600000204100080218BF04200A0E18BFF3
:1038200040F001004FF07F4232EA010108BF40F052
:103830000200012808BF052070470907090E00286B
:1038400004DB00F1E02080F80014704700F00F0066
:1038500000F1E02080F8141D70470121FCF73EBD07
:10386000FCF7B2BC00210846FCF78EBE6FF05E018B
:103870000807FCF733BD02E008C8121F08C1002A80
:10388000FAD170477047002001E001C1121F002AE1
:10389000FBD17047014908607047000064000020B8
:1038A0002DE9FF5FDDE90220010DDDF838B00243AC
:1038B00018D044F61050A1F2FF3141430D140F9877
:1038C000012820D0A5EB0B00401C5FEA000A4FF056
:1038D0000004474EDFF81C91A046504616D5CAF1A9
:1038E000000728E00F98012443A2012808D00021F6
:1038F00000980F9BC0E90021C0E90243BDE8FF9F8B
:103900006FEA0B01F4E7CBF10000DEE7074612E0B7
:10391000F80707D02246334640464946FCF776FF73
:10392000804689462246334610461946FCF76EFF0C
:1039300004460E467F10002FEAD1DDE90201BAF1FC
:10394000000F42464B4602DAFCF760FF01E0FCF74D
:10395000D1FC04460E460022284BFCF7E1FF03D8B9
:103960004FF0FF30014607E00022254B204631464C
:10397000FCF7A5FEFCF7BCFF102409E0002C0ADBD5
:103980000A220023FCF798FD019B30321A55641E71
:1039900050EA0102F2D1641C019AC4F111031444EB
:1039A0000F9A012A03D0012208430DD10AE00843EF
:1039B00004D000204FF0110B0F9080E7A3EB0B0514
:1039C0006D1E0DE05B4504DD4FF0000205F10105C1
:1039D00004E003DA4FF00002A5F10105002AECD063
:1039E00000980F99C0E90231C0E9004586E7000060
:1039F000000024400000F03F300000000000F043D1
:103A00000000E03F2DE9FF4F95B09B4689460646F2
:103A100000250FE2252877D100242746F84A012106
:103A2000059400E0044316F8013F203B01FA03F03F
:103A30001042F7D130782A2811D06FF02F03307858
:103A4000A0F13002092A16D8059A44F0020402EBCC
:103A5000820203EB42021044761C0590EFE759F80E
:103A6000042B0592002A03DA504244F400540590D6
:103A700044F00204761C30782E2816D116F8010F77
:103A800044F004042A280DD06FF02F023078A0F102
:103A90003003092B09D807EB870302EB4303C71850
:103AA000761CF3E759F8047B761C30786C280FD02D
:103AB00006DC4C2817D068280DD06A2814D104E001
:103AC000742810D07A280FD10DE044F400140AE0D5
:103AD00044F4801401E044F440147278824202D12C
:103AE00004F58014761C761C307866280BD013DC25
:103AF000582877D009DC002875D04528F6D046280C
:103B0000F4D047281AD19DE118E0632835D0642805
:103B100079D0652812D195E1702873D008DC672828
:103B2000F1D069286FD06E280DD06F2806D1B5E08E
:103B300073282CD0752875D0782874D05A461799D8
:103B400090476D1C75E1C4F30250022809D0032888
:103B50000DD0D9F8001004280DD00D6009F104092A
:103B600067E1D9F80010EA17C1E90052F6E7D9F881
:103B700000100D80F2E70D70F0E719F8041B8DF8C6
:103B8000001000208DF80100EA46012003E059F8FA
:103B900004AB4FF0FF3061074FF0000102D40DE09D
:103BA00008F101018846B9420FDA8045F8DB1AF8BE
:103BB00008100029F4D108E008F10101884681428B
:103BC000FADB1AF808100029F6D105985B46A0EB3D
:103BD000080721463846179A00F094FA284400EB6B
:103BE000080507E04DE029E10DE01AF8010B5A46FF
:103BF00017999047B8F10108F7D25B46214638463D
:103C0000179A13E142E00A220092C4F302524FF0E5
:103C1000000A022A08D059F804CB032A4FEAEC71B3
:103C20000AD00DE029E02AE009F1070121F007029E
:103C3000F2E802C1914609E00FFA8CFC4FEAEC7100
:103C4000042A03D14FFA8CFC4FEAEC71002907DA01
:103C50000A460021DCF1000C61EB02012D2202E09A
:103C6000220504D52B228DF80420012203E0E2076F
:103C700001D02022F7E7904659E00A2102E0102205
:103C80000DE010214FF0000A00910BE010224FF0E0
:103C9000000A44F004040827009203E008224FF0D1
:103CA000000A0092C4F30252022A05D059F804CB4C
:103CB0000021032A08D009E009F1070121F00702D9
:103CC000F2E802C1914605E01FFA8CFC042A01D1FA
:103CD0000CF0FF0C4FF00008220728D5702806D002
:103CE000009B83F0100353EA0A0305D00EE0402244
:103CF0008DF80420012208E05CEA010206D030229F
:103D00008DF804208DF8050002229046009B83F078
:103D1000080353EA0A030AD15CEA010201D16207EF
:103D200005D530228DF804204FF001087F1E582859
:103D300004D034A003900EA802900DE036A0F9E75D
:103D400053466046009AFCF7B7FB84460398825CB2
:103D50000298401E029002705CEA0100F0D10298C5
:103D600006A9081A00F1200A600702D524F480345D
:103D700000E00127574502DDA7EB0A0000E0002024
:103D800000EB0A01009005984144401A0590E003B9
:103D900006D45B462146179A059800F0B3F905440E
:103DA000002706E001A85A46C05D179990476D1C90
:103DB0007F1C4745F6DBE0030CD55B462146179A8E
:103DC000059800F09FF9054404E030205A46179901
:103DD00090476D1C0099481E00900029F5DC08E012
:103DE000029802995A460078491C02911799904707
:103DF0006D1CBAF10001AAF1010AF1DC65E10000D5
:103E000009280100303132333435363738396162B0
:103E10006364656600000000303132333435363774
:103E200038394142434445460000000000F058F94B
:103E30000544761C307800287FF4ECAD19B0284694
:103E4000BDE8F08F620700D4062709F1070222F0CF
:103E5000070CFCE80223E14603F000485FEA080C87
:103E600002D00FF2702C0DE05FEA045C02D50FF275
:103E7000682C07E05FEAC47C02D00FF2602C01E0FE
:103E8000AFF2700C4FF0FF3823F00043CDF850C074
:103E900065280CD006DC452809D046281DD04728C7
:103EA0003DD13DE0662818D067287ED138E000215A
:103EB000112F01DB112000E0781CCDE9000106A9DB
:103EC0000EA8FFF7EDFCDDE90F010E9A039100212A
:103ED000009207F1010A04914DE04FF00040009775
:103EE000CDE9011006A90EA8FFF7DAFCDDE90F0203
:103EF00003920E9B11990022DDF80CA0009304920E
:103F000011B9791C00EB010AB7EB0A0004D4C0F127
:103F1000FF3007F1010A0490AAEB0700019044E08A
:103F2000012F00DA01270021112F01DD112000E00F
:103F30003846CDE9000106A90EA8FFF7B1FCDDE97E
:103F40000F010E9A0391002104910092BA462107B5
:103F50000CD40399514500DA8A46BAF1010F05DD08
:103F6000009AAAF10101515C302908D0B84202DA66
:103F700010F1040F06DA0121CDE9011015E0AAF1D4
:103F80000101E9E7002805DC049901440491AAEB4A
:103F9000000102E0411C514500DD8A460499401AA7
:103FA000401C01904FF000400290200704D401987B
:103FB000504501DBCDF8048000208DF84F000298B9
:103FC0000DF14F07B0F1004F25D02B200E90029835
:103FD0004FF0020800280CDA404202902D200E908B
:103FE00007E00A210298FCF751FA3031029007F8F5
:103FF000011DB8F10001A8F10108F2DC02980028C7
:10400000EFD1791E0E980870307800F0200040F053
:10401000450007F8020D12A8C01B00F1070814980C
:10402000007800B1012000EB0A01019801EBE0717A
:1040300005984144401A401E0590E00306D45B46B3
:104040002146179A059800F05DF805441498007809
:1040500018B15A46179990476D1CE00324D55B466A
:104060002146179A059800F04DF805441CE0049885
:10407000002807DBDDE90301884203DD0098405C8E
:10408000179901E0179930205A469047049805F196
:104090000105401C04900198401E019004D12E207F
:1040A0005A46179990476D1CBAF10001AAF1010A0E
:1040B000DDDC05E017F8010B5A46179990476D1C97
:1040C000B8F10001A8F10108F4DC5B462146179A1B
:1040D0000598ABE62D0000002B000000200000003A
:1040E0002DE9F041044600251E461746880404D4F5
:1040F00005E039462020B0476D1C641EF9D52846DE
:10410000BDE8F0812DE9F041044600251E469046A9
:10411000C80301D5302700E02027880404D505E036
:1041200041463846B0476D1C641EF9D52846BDE8A7
:10413000F081000030B4002390F8DC2409E000BFD7
:1041400003EBC30400EB8404D4F828448C4213D05E
:104150005B1C9A42F4DC052A0ED202EBC20300EB90
:104160008303521C80F8DC24C3F82814002183F850
:104170002C1430BC02F0FEB930BC704770B5054657
:10418000049E082919D201EB810000EBC10005EB68
:10419000800000F21C54194600F224506260FCF7C3
:1041A0000AF884F82860002121706170E1622846D5
:1041B0002163BDE8704002F0DDB970BD2DE9F0412A
:1041C00004464FF00E4000EB4400B0F1506F204623
:1041D00055D84FF0FC41B1EB440F1CD224F0004005
:1041E0004FF07E51FCF745F84FF0FF31FCF776F8C1
:1041F000054602F0F4F814F0004F1DBF2F4F304E6B
:1042000080F000402F4F08BF2F4E4FF04041FCF789
:1042100033F8044605E000273E460146FCF72CF83B
:1042200005462A492846FCF727F82949FBF7CCFF21
:104230002946FCF721F82749FBF7C6FF2946FCF77A
:104240001BF82549FBF7C0FF2946FCF715F8234961
:10425000FBF7BAFF804629462046FCF70DF8414699
:10426000FCF70AF8054631462046FBF7ADFF294624
:10427000FBF7AAFF3946BDE8F041FBF7A5BF4FF0B9
:10428000E441B1EB440F08D9FFF7C4FA042808BF92
:10429000FFF7ECFA2046BDE8F0814FF07F41B1EB2B
:1042A000440F03D2BDE8F041FFF7D7BA0120FFF772
:1042B000F1FABDE8F041FFF7D5BA00000000C9BF30
:1042C00022AAFDB90000C93F22AAFD3924FE1C3DE7
:1042D000C78AD83C1E67383D1B93993DAFAA2A3E3A
:1042E0002DE9F0474FF0684202EB40030C460546CB
:1042F000B3F1654F3CBF02EB4102B2F1654F7CD296
:10430000C0F3C753C1F3C7529A1A1B2A06DD10F037
:10431000004F14BF76487748BDE8F08712F11A0FB6
:1043200017DA11F0004F06D010F0004F0CBF7248A2
:104330007248BDE8F08721462846FCF725F9044677
:10434000FFF768FA042808BFFFF790FA2046BDE897
:10435000F0874200B2EB410F25D910F0004F19BF92
:10436000674F684E684F694E224685F000441546F7
:104370000A4680F0004110460A1A5200B2F1807FCE
:1043800040D248406249DFF88CA110F0004F18D0AD
:104390004FF03F483846FBF769FF07465146304625
:1043A000FBF764FF17E011F0004F04BF002637460B
:1043B000E2D010F0004F19BF574F584E584F594E8A
:1043C000DAE74FF07C583846FBF7FEFE07465146C9
:1043D0003046FBF7F9FE064641462846FBF74CFF00
:1043E0002146FBF7F1FE824621464046FBF744FF9B
:1043F0002946FBF73EFF514600E037E0FCF7C4F8E2
:10440000044604E021462846FCF7BEF8044601466F
:10441000FBF732FF80464449FBF72EFF4349FBF789
:10442000D3FE4146FBF728FF4149FBF7CDFE41464D
:10443000FBF722FF3F49FBF7C7FE4146FBF71CFF96
:104440003D49FBF7C1FE054641462046FBF714FFF8
:104450002946FBF711FF3146FBF7B6FE2146FBF775
:10446000B3FE3946BDE8F047FBF7AEBE4FF07F42E2
:10447000B2EB400F28BFB2EB410F03D2BDE8F047CB
:10448000FFF7EEB940EA01035B0008BF44F0FF41CB
:104490000AD0B2EB400F08BFB2EB410F06D125F0B6
:1044A000804024F0804105460C4629E7B2EB400FDE
:1044B00012BF5FEA410245F0FF4004F000413FF4C3
:1044C0001FAF4A0092EA40033FF51AAF002AACBF83
:1044D0004FF09F464FF03E563146FBF7CDFE054666
:1044E00031462046FBF7C8FE04462846214607E72A
:1044F000DB0FC9BFDB0FC93FDB0F4940DB0F49C0F2
:104500000000C9BF22AAFDB90000C93F22AAFD3997
:104510000060ED3EC30ACE37000049C022AA7DBA32
:104520000000494022AA7D3A2DAD65BD8FB8D53D2A
:104530000FB511BE61C84C3EA8AAAABE02462021F2
:104540000148FDF73BB80000000C0140F0B41D46E7
:104550001646DDF81030002202EB420400EB840422
:10456000B4F8E0748F420DD1D4F8E47457B102EB83
:10457000420100EB81002A46D0F8E8043146BC46EF
:10458000F0BC6047521C052AE6DBF0BC7047000017
:104590002DE9F041114E0C4617463146FBF76CFEF3
:1045A000FBF72CFF054631462046FBF765FEFBF77F
:1045B00025FF044631463846FBF75EFEFBF71EFF3B
:1045C00007490246280A08704D70200A8870CC708E
:1045D000100A08714A71BDE8F08100000000C8426D
:1045E0004C00002070B505460C4601F10E0000F0AD
:1045F0006FFFFBF7EEFE6FF00D063146FBF76EFE28
:10460000686104F1100000F063FFFBF7E2FE314641
:10461000FBF764FEA86104F1120000F059FFFBF7FC
:10462000D8FE3146FBF75AFEE86104F1140000F0B1
:104630004FFFFBF7CEFE3146FBF750FE286200200D
:1046400070BD70B505460C4601F10E0000F040FF4C
:10465000FBF7BFFE6FF00D063146FBF73FFE6861CA
:1046600004F1100000F034FFFBF7B3FE3146FBF716
:1046700035FEA86104F1120000F02AFFFBF7A9FE45
:104680003146FBF72BFEE86104F1140000F020FF37
:10469000FBF79FFE3146FBF721FE286204F116006E
:1046A00000F016FFFBF795FEB11CFBF717FE6862E2
:1046B000002070BD70B505460C4601F10E0000F0FB
:1046C00007FFFBF786FE6FF00D063146FBF706FE8F
:1046D000686104F1100000F0FBFEFBF77AFE314642
:1046E000FBF7FCFDA86104F1120000F0F1FEFBF7FE
:1046F00070FE3146FBF7F2FDE86104F1140000F0B2
:10470000E7FEFBF766FE3146FBF7E8FD2862002076
:1047100070BD70B505460C4601F10E0000F0D8FEE4
:10472000FBF757FE6FF00D063146FBF7D7FD6861CA
:1047300004F1100000F0CCFEFBF74BFE3146FBF716
:10474000CDFDA86104F1120000F0C2FEFBF741FEAE
:104750003146FBF7C3FDE86104F1140000F0B8FE38
:10476000FBF737FE3146FBF7B9FD286204F116006E
:1047700000F0AEFEFBF72DFEB11CFBF7AFFD68624B
:10478000002070BD70B505460C4601F10A0000F02E
:104790009FFEFBF71EFE6FF00D063146FBF79EFDF8
:1047A000686104F10C0000F093FEFBF712FE314645
:1047B000FBF794FDA86104F10E0000F089FEFBF701
:1047C00008FE3146FBF78AFDE86104F1100000F0B5
:1047D0007FFEFBF7FEFD3146FBF780FD286204F10A
:1047E000120000F075FEFBF7F4FD361D3146FBF7B5
:1047F00075FD686204F1140000F06AFEFBF7E9FD44
:104800003146FBF76BFDA86204F1160000F060FE74
:10481000FBF7DFFD3146FBF761FDE862002070BD6C
:1048200070B505460C4601F10E0000F051FEFBF795
:10483000D0FD6FF008063146FBF750FD686104F1CA
:10484000100000F045FEFBF7C4FD3146FBF746FDC6
:10485000A86104F1120000F03BFEFBF7BAFD3146FF
:10486000FBF73CFDE86104F1140000F031FEFBF7BA
:10487000B0FD3146FBF732FD286204F1160000F06E
:1048800027FEFBF7A6FD3146FBF728FD686204F121
:10489000180000F01DFEFBF79CFD3146FBF71EFDE6
:1048A000A862002070BD70B505460C4601F10E00EF
:1048B00000F00EFEFBF78DFD6FF003063146FBF7AF
:1048C0000DFD686104F1100000F002FEFBF781FDB0
:1048D0003146FBF703FDA86104F1120000F0F8FD7A
:1048E000FBF777FD3146FBF7F9FCE86104F11400B2
:1048F00000F0EEFDFBF76DFD3146FBF7EFFC2862A3
:1049000004F1160000F0E4FDFBF763FD3146FBF710
:10491000E5FC686204F1180000F0DAFDFBF759FDD0
:104920003146FBF7DBFCA862002070BD70B5054680
:104930000C4601F10E0000F0CBFDFBF74AFD6FF0D5
:104940000D063146FBF7CAFC686104F1100000F067
:10495000BFFDFBF73EFD3146FBF7C0FCA86104F14B
:10496000120000F0B5FDFBF734FD3146FBF7B6FC55
:10497000E86104F1140000F0ABFDFBF72AFD3146BD
:10498000FBF7ACFC286204F1160000F0A1FDFBF778
:1049900020FDB11CFBF7A2FC6862002070BD10B5C1
:1049A0002020FDF729FA1F20FDF726FABDE8104068
:1049B0000A20FDF721BA10B50A20FDF72EFA1F20B4
:1049C000FDF72BFABDE810402020FDF726BA0000C5
:1049D0000868002802D102490120087070470000D1
:1049E0004000002070470000012A02D10978012907
:1049F00005D0D0F8F011491CC0F8F0117047012122
:104A00000172054A00211160D0F8BC20002AF5D0BF
:104A1000D0F8C000004910470807002070B50446D0
:104A20000D4601F063FE002806D1A97984F8A8108C
:104A300001B1411FC4E9280170BD01220C2100F021
:104A4000A6BE0A78EF2A09D1497890F8A8209142A9
:104A500004D10021C0F8A410C0F8A010704708B518
:104A600000210091F0218DF8001090F8A8108DF829
:104A70000110C17A406802236A4601F071FC08BD4A
:104A800013B54FF47A73012269460248FDF7C6FE5A
:104A900000981CBDFC00002070B505460C4601F0D6
:104AA00025FE00281AD16079002108B1491F12E0C3
:104AB000A079002200B10122E07908B142F002029F
:104AC000207A08B142F00402607A08B142F008028C
:104AD000D5F8A80002700020C5E9280170BD0EB508
:104AE000002100910191029101218DF803106A4685
:104AF000072100F021FE0EBD70B50C46054601F001
:104B0000F5FD002817D1217904F10800061D99B19F
:104B100000F0E8FCD5F8AC108860304600F0E2FC0C
:104B2000D5F8AC10C8602079012804D10020C5F860
:104B3000A400C5F8A00070BD00F0D4FCD5F8AC10FE
:104B40000860304600F0CEFCD5F8AC104860EAE7CB
:104B50000EB590F8A820002300938DF800308DF852
:104B600001200221019302936A4600F0E5FD0EBD8B
:104B700070B504460D4601F0B9FD002831D1E87941
:104B8000D4F8B010FF28B4F8B4002BD009888142C3
:104B900027D954F8AC2F00EB4000697902F81010C7
:104BA0000123226803EB4003A979D1540223226830
:104BB00003EB4003E979D1540323226803EB40035C
:104BC000297AD1540423226803EB4003697AD15433
:104BD0000523226803EB4000A97A11542089401C68
:104BE000208170BD08800020C4F8A400C4F8A00093
:104BF00070BD0021A0F8B41090F8A820012100F0A9
:104C0000C6BD70B50A78F32A55D14A78002402F05F
:104C10000F03012B08D0022B06D0042B04D0082B45
:104C200002D0052B03D009E06FF0040141E0D0F879
:104C3000B0201480C0F8A440C0F8A0404A88B0F862
:104C4000B450954206D0D0F8B0502C806FF00305D8
:104C5000C0E92845D0F8B0502D880DB1954207D352
:104C6000D0F8AC604D6846F82250551CA0F8B450FE
:104C70004D780226B6EB151F0FD1D0F8B0502D8815
:104C80000DB1954209D30426D0F8AC5006EB82064C
:104C90008968A951921CA0F8B420032B03D0062BDD
:104CA00001D0072B07D1D0F8B020B0F8B410118094
:104CB0000021C0E9284170BD1CB50021A0F8B41046
:104CC0000091F4228DF800208DF801100191ADF8CB
:104CD0000210B0F8A820ADF80420ADF806100822A4
:104CE000694600F06BFD1CBD70B504460D4601F031
:104CF000FDFC002808D1D4F8A800697901700020D3
:104D0000C4F8A400C4F8A00070BD0A2100F036BDAC
:104D100010B50A78F82A39D1D0F8A8205AB390F8FB
:104D2000AC3090F8AD40A3421FD202EB03124B7897
:104D300013708B785370CB7893704B6853608C688A
:104D400094608C8994818C7B9473C97BD173104956
:104D50008B4202D1052180F8AD1090F8AC10491CAF
:104D600080F8AC10D0F8A81029B190F8AC1090F8E9
:104D7000AD2091420AD3D0F8A82090F8AC1082F868
:104D800050100021C0F8A410C0F8A01010BD000001
:104D90007FA6980008B5002180F8AC10042280F8A6
:104DA000AD200091F9218DF800100222694600F033
:104DB00005FD08BD5FF0000200EB42035B7F8B4204
:104DC00003D100EB4200807F7047521C402AF3DB86
:104DD000002070470A78FC2A27D14A7890F8AC3036
:104DE0009A4222D18B78D0F8A820C3F340031370E5
:104DF0008B7803F0010353708B78C3F380039370B7
:104E00008B78C3F3C003D370B1F803309380D1F82B
:104E100005309360D1F80930D360D1F80D101161DD
:104E20000021C0F8A410C0F8A010704708B50021F8
:104E30000091FE218DF8001090F8AC108DF8011053
:104E40000222694600F0BAFC08BD000010B5044615
:104E50004FF0FF31FBF742FA0849A1EB6404214609
:104E6000FBF70AFA2146FBF707FA4FF07F51FBF7F1
:104E700000FA2146BDE81040FBF7FEB9DF59375F65
:104E8000FCF750FFFEF744FBFEF78EF9FEF7F8F94A
:104E9000FEF74CFAFEF714FAFEF764F9FBF7BAFDD9
:104EA000FEF792FC0025064CFBF7F2FD2078012866
:104EB000FAD106210348FEF77DFC2570F4E70000D7
:104EC000000000204C0000202DE9F041044600685D
:104ED000884601698847174D06464046D5F8A01018
:104EE00019B16FF00200BDE8F0810027C5E928077D
:104EF00041682846884710B1C5E92870F3E7304675
:104F000005E0606801F040FA206801698847D4F83C
:104F1000A01059B1D8F800100029F2D0801B8842A7
:104F2000EFD36FF00500C4E92870DCE7D4F8A400E3
:104F3000D9E700000C050020D0F8A030002B03D0EA
:104F40009B68002B00D01847704700002DE9F04FF8
:104F50009DB00146A84C0EA800F03EFE010001D015
:104F6000A6A01FE0DDE91001FBF73CFA0022AC4BE4
:104F7000FBF7C0F9FBF76EFA9DF8381005460829D3
:104F80007DD008DC012922D0022979D0052949D019
:104F9000072906D1CEE0142909D015292DD02A29B8
:104FA0006FD0A0A0FEF726FC1DB0BDE8F08FFBF788
:104FB0003EFABDF94C20BDF95040BDF94E308DE8A8
:104FC0001C0002460B469DA0FEF714FCECE715986A
:104FD000FBF72DFA81468A461498FBF728FA074614
:104FE00088461398FBF723FA04460E462846FBF73B
:104FF0001EFA02460B4698A0B3E0FBF718FABDF97B
:105000004E2001AEBDF95240BDF95030159D86E8E5
:105010003C00BDF94C20009202460B4694A0FEF7DE
:10502000E9FBC1E716980190DDE913608046204650
:10503000159F1799FBF720F9FBF7F9F908900C4633
:105040003846FBF7F4F982468B464046FBF7EFF90A
:10505000074689463046FBF7EAF9009088460198F2
:10506000FBF7E5F90C900E462846FBF7E0F90246FF
:1050700004A8099480E8800E0B46009802E00AE03C
:105080003AE073E0CDE902080C98CDE900068548C6
:10509000FEF7B0FB88E784481399016014994160DA
:1050A000159981601699C160FEF760F9DFF8FC91EF
:1050B000D9F80000FBF7BBF9DFF8F48106460F468C
:1050C000D8F80000FBF7B3F9DFF8E8A104460D4675
:1050D000DAF80000FBF7ABF98DE8F00002460B466A
:1050E00075A0FEF787FBD9F80020D8F80010DAF891
:1050F0000000FFF74DFA57E7DDE91440DDF84C807A
:10510000FBF795F906460F462046FBF790F98246D5
:105110000C464046FBF78BF9804689462846FBF74C
:1051200086F90B4603A9024681E8D0008DE8000706
:105130006AA018E0DDE91460139CFBF778F981465A
:105140008A463046FBF773F9074688462046FBF748
:105150006EF904460E462846FBF769F902460B46EF
:1051600068A08DE8D007FEF745FB1DE77048816811
:10517000491C81600A298DD1002181601698019017
:1051800013980290DDE914408046DDE91870179EFF
:10519000FBF74DF90C908A463846FBF748F98146F3
:1051A0008B463046FBF743F9CDE908014046FBF753
:1051B0003EF906900F462046FBF739F90646884629
:1051C0000298FBF734F902900C460198FBF72FF98F
:1051D000CDE900012846FBF72AF90B4603A9CDF8D3
:1051E00034A0079781E85001CDE90A9B0246514857
:1051F000FEF700FBD8E60000E12E65424572726FB3
:1052000072206465636F64696E672073656E736F87
:1052100072206576656E743A2025640D0A000000E0
:1052200080842E41556E6B6E6F776E2073656E7342
:105230006F723A2025640D0A0000000025382E34D4
:105240006620526177206163633A202564202564DB
:105250002025640D0A00000025382E3466204163A5
:10526000633A2025662025662025660D0A00000089
:1052700025382E346620526177206779726F3A2084
:10528000783A256420793A2564207A3A2564207496
:10529000656D703A25642074696D655F75733A2594
:1052A000640D0A0070680008FC0400203000002033
:1052B000280000202C00002050697463683A2530D3
:1052C0002E326620526F6C6C3A25302E3266205991
:1052D00061773A25302E32660D0A000025382E34CB
:1052E00066204759524F3A20783A25302E366620AC
:1052F000793A25302E3666207A3A25302E36660DDC
:105300000A00000025382E3466204759524F5F5559
:105310004E43414C3A20783A25302E366620793A71
:1053200025302E3666207A3A25302E36660D0A0054
:1053300040000020BC6800082DE9F04F83460020A3
:105340009DB00E4601240190029006908DF8280031
:105350008DF848000221914682468BF82414A9E07A
:10536000375D641CA0B216F80080401C80B235186E
:10537000404484B20A2F1AD2DFE807F095051A24B8
:10538000283742484F7200231A46CDF800A05846ED
:105390000199FFF7DBF8284600F0A4F801460190D8
:1053A0005846FEF7C7FE8DF828A08DF848A07AE091
:1053B000284600F095F8001F80B2FF2873D8ABF89C
:1053C000140070E0284600F08BF86CE0284600F0EE
:1053D00087F8001F80B2FF2802D8ABF8160062E001
:1053E0004FF48071ABF816105DE0284600F078F8B5
:1053F000001F80B2B0F5C07F55D2ABF8180152E063
:10540000284600F074F80290002004E0284600F0DE
:105410006EF802900120069045E029460AA8FAF7A6
:10542000CAFE0AA800905946DDF804E000209BF867
:10543000DC2412E000EBC00301EB8303D3F828C4A3
:10544000F44509D100EBC0000BEB800000F22C40CA
:105450000099FAF7B0FE26E0401C8242EAD822E02A
:10546000294612A8FAF7A7FE06980090DDE9012167
:105470002B465846FEF782FE0298082813D200EB0E
:10548000800202EBC0020BEB820001990090C0F891
:105490002015009812A900F22450FAF78CFE00980B
:1054A000069980F8441543463A46009558460199B6
:1054B000FFF74CF84C45FFF453AF00231A46CDF8E4
:1054C00000A058460199FFF741F81DB0BDE8F08FE4
:1054D000B0F900007047C178006861F31F60704741
:1054E00000887047C178006861F31F6070470078DA
:1054F000704770B505460C4601F0F8F8002806D153
:105500006079002200B1521F0020C5E9280270BD59
:105510000122042100F03BB92DE9FC4154211A4835
:10552000FAF729FE184800F065FC002804DABDE807
:10553000FC4116A0FEF75EB90025DFF87080124E20
:105540001CE000BF06EB051082688189CDE90012DE
:1055500083784278416816A0FEF74CF9D8F8040029
:1055600042F2107701698847044603E0D8F8040046
:1055700001698847001BB842F8D36D1C96F85000AB
:10558000A842DFDCBDE8FC81A80400204572726FF0
:10559000722066726F6D207368325F676574507237
:1055A0006F644964732E0D0A000000004000002063
:1055B00050617274202564203A2056657273696FB9
:1055C0006E2025642E25642E2564204275696C6446
:1055D0002025640D0A00000002464FF400410148F6
:1055E000FBF7ECBF000801402DE9F04715460446E3
:1055F000042A06D2D4F82408401CC4F82408BDE8C4
:10560000F0870A7848788E7802EB0022C2F30E0702
:10561000C00991F80380042F0AD2D4F82408401C52
:10562000C4F824086268002AE9D00121A06834E0A7
:10563000082E03D294F81C28B2420AD8D4F82C08B9
:10564000401CC4F82C086268002AD8D00321A06846
:1056500023E0B4F81AC10022BCF1000F10D068B1E9
:1056600094F81C01B04209D106EB860000EBC6009D
:1056700004EB800090F81DC5C44517D0A4F81A218A
:10568000B7F5C07F0CD9D4F82808401CC4F8280806
:105690006268002AB3D0A0680221BDE8F047104735
:1056A000C4F8A032A4F89E2284F81C61BD4200D93F
:1056B0003D46B4F89E2204F21D1902EB09002A1F90
:1056C000091DFAF73FFDB4F89E12281F084482B264
:1056D000781B0004A4F89E22000CA4F81A010ED135
:1056E00006EB860000EBC60004EB8000D0F84855BE
:1056F0002DB1D4F8A032D0F84C054946A84706EBA6
:10570000860101EBC60104EB810108F1010081F87B
:105710001D0574E770B505460C4600F0E7FF00284C
:1057200006D16079002200B1521F0020C5E928028D
:1057300070BD062100F022B83EB50023009301930E
:10574000029380F8B81090F8BA3080F8B9305C1C39
:1057500080F8BA40F2248DF800408DF801308DF8C1
:10576000021000216B46545C5D18491CEC7009293D
:10577000F9DB0C22194600F021F83EBD0EB50022DF
:105780000092019202926A46FFF7D6FF0EBD0EB557
:10579000002300938DF80020019302936A46FFF7DF
:1057A000CBFF0EBD10B5044690F8AA1000F1AB0275
:1057B000FFF7C2FF0021C4E9281010BD30B4C47A3D
:1057C00013460A464068214630BC00F0C9BD084671
:1057D000FFF7BCBB70B50446F9B1802907D0812919
:1057E0001AD15108402909D94021002008E004F1CC
:1057F0000C00BDE870401946FAF7DDBC002009E056
:1058000004EB400213F81050557703EB4005401CA1
:105810006D7895778842F3DB70BD07A208A16068B8
:1058200000F0CCFCA07209A20AA1606800F0C6FCDE
:10583000E0720120607270BD646576696365000086
:1058400065786563757461626C650000636F6E7482
:10585000726F6C0073656E736F7268756200000022
:105860002DE9F0411600884604464FF0000550D15E
:10587000D4F8F401401CC4F8F401BDE8F08100BF85
:1058800018F805105FF0000004EB4002527F8A42D6
:1058900008D104EB4000877F3FB1F12931D0FC29CA
:1058A00009D02EE0401C4028EEDBD4F8F801401C63
:1058B000C4F8F801E1E7D4F8BC2012B3164908EBAC
:1058C000050002230B6010F8013F0B714378C3F30E
:1058D00040030B72437803F001034B724378C3F328
:1058E00080038B724378C3F3C003CB7243888B81F0
:1058F00043680B6183684B61C0688861D4F8C0005D
:10590000904708EB05013A462046FFF715FBE819DA
:1059100085B2B542B4D3B0E7080700202DE9FF4FA8
:105920002A2789B09A469046064600243946FFF752
:1059300041FA0546A1460DF10A0B14E0CDE900A994
:105940000A988DF8097001192A465846FAF7FAFBA9
:105950008DF80850D6F8C4201AB16946D6F8C800A8
:105960009047601984B24445E8D30DB0BDE8F08F8C
:105970002DE9FF4F002489B017468B460646A24604
:1059800048E000BF1BF80400814601463046FFF79F
:1059900011FA050043D0B9F1FB0F46D0B9F1FA0F67
:1059A00049D0B9F1EF0F0BEB04014CD08A78C878DD
:1059B00002F0FC0200EB821325480C9AD0F800C0DC
:1059C000624505D2D0F804C00CF1010CC0F804C047
:1059D00002605344D0F804C003EBC30808EB031380
:1059E000002002EB8302121840EB0C00CDE90020EE
:1059F0008DF809902A460DF10A00FAF7A3FB8DF8FD
:105A00000850D6F8C4201AB16946D6F8C8009047A5
:105A1000601984B2BC42B5D30DB0BDE8F08FD6F8A2
:105A2000F801401CC6F8F801F6E70BEB0400D0F8CB
:105A30000100404205E00BEB0400D0F8011001EB3F
:105A40000A008246E4E72A463046FFF775FADFE7A8
:105A500054000020FFF78CBFFFF78ABF70B50546E2
:105A60000C4600F043FE002806D16079002200B108
:105A7000521F0020C5E9280270BD0EB5002100911B
:105A80000191029190F8A81001F001028DF8002018
:105A9000C1F340018DF8011090F8A8106A46C1F3D7
:105AA00080018DF8021090F8A810C1F3C0018DF8A4
:105AB00004100721FFF740FE0EBD3EB50B78002213
:105AC000F52B33D1497800230C292FD2DFE801F0E0
:105AD000062F2F31062F2F2F2E2F2F2FB0F8B21079
